:020000040000FA
:10300000000C0020D5300000E9300000EB3000005B
:1030100000000000000000000000000000000000B0
:10302000000000000000000000000000ED30000083
:103030000000000000000000EF300000F130000050
:103040000F3100000F3100000F3100000F31000080
:103050000F3100000F3100000F3100000F31000070
:10306000F33000000F310000F73000000F31000096
:10307000FB300000A13D000003310000A538000036
:103080000F3100000F3100000F3100000F31000040
:103090000F3100000F3100000F3100000F31000030
:1030A0000F3100000F3100000F3100000F31000020
:1030B0000F3100004D3F0000073100000B310000D0
:1030C0000348854600F048FB004800478550000053
:1030D000000C002072B60F480F4901600A6882F3A5
:1030E000088862B60D480047FEE7FEE7FEE7FEE708
:1030F000FEE70B4800470B4800470B4800470B48CA
:1031000000470B4800470B4800470A4800470B4858
:103110000047000008ED00E000300000C130000072
:103120000F3100000F3100000F3100000F3100009F
:103130000F310000B53D0000000000000F3100001D
:1031400030B50B46014600202022012409E00D463F
:10315000D5409D4205D31D469540491B25469540C7
:1031600040191546521E002DF1DC30BD024670B5E7
:103170004A40D30FDB0740002DD04A002AD0010E71
:10318000140E000212020919400A520A8418E501BD
:1031900004465443000A120A2E045043A41942194B
:1031A000200CC543AA18120C0125AD03521C52195C
:1031B00012047F39240400D0521C104301D4400073
:1031C000491EC2B20C06C0092018401C4008802AC3
:1031D00002D003E0002070BD40084000002900DA62
:1031E0000020184370BD70B502464A40D50F40001C
:1031F0004A00ED0740085208002814D0002A12D0D7
:10320000C40DD30D41020120C0055202490A520AE1
:10321000E41A091812187D34914201D3641C00E0AD
:103220004900002C01DA002070BD0023914201D337
:10323000891A0343400849000028F7D100290AD021
:10324000914202D10121C90705E0914201D2012139
:1032500001E00121C943E005C018401900F04CF815
:1032600070BD10B500229623114600F04DF810BD38
:10327000C20FD207400040080BD0C10D0723DB016D
:10328000C91840020905400A1143C208400711430A
:103290007047002001467047F0B51FB40646002075
:1032A00082B005464024019100901BE0019922461E
:1032B0000F46304600F072FA049A059B801A994135
:1032C00010D310461946224600F058FA361A8F419C
:1032D0000197224601200021009F00F04FFA381884
:1032E0004D4100902046641E0028DFDC019B0098C1
:1032F0002946324607B0F0BD002904DA401C4900D7
:1033000001D140084000704770B40024050C05D17D
:103310001024000402D1002921D01124050E01D16E
:1033200000020834050F01D10001241D850F01D1D1
:103330008000A41C002801DB4000641C002908D088
:1033400020252E1B0D46F540A14000D00121294328
:10335000084301061B1B000ADB1D02D5002070BCC0
:103360007047DB05181880180029F8DA401C49005E
:10337000F5D170BC4008400070470000F0B507462A
:103380000846584087B0C00F049048000E465900C8
:1033900040084908BC1A884105D2384631461E46C5
:1033A00017460B4602465800400810434CD0300DDB
:1033B000039040055900400D490D0590401A0290B8
:1033C000402872DA18030121000B09050843019017
:1033D00004980092002805D00199524200208841AB
:1033E00000920190029840210A1A0199009800F079
:1033F000C5F905460C466B4607CB00F0E0F9C0194D
:103400007141039A0E0D0023D71756401A467A4091
:10341000164344D0049A002A2DD0029A012A039A16
:1034200015DC1205C01A914101263605001C7141B8
:10343000D20F059ED2070093019202962A46234698
:1034400000F0DDF907B0F0BD38463146FAE7160561
:10345000224A0F46B218C01AB74101210905001CC3
:103460004F4100187F41114618187941E20F10436F
:103470006D19644113E0E2076D0815436408C20743
:103480001443039A01261205C01A91413605001C07
:103490007141CE07400830434908C01851412A46BF
:1034A000234600F09FF9CDE7FFE704980122400092
:1034B000C117121A00238B4104983146C417381AD9
:1034C000A141EEE730B40124E407634030BC55E786
:1034D00030B40124E407614030BC4FE70000E0FF56
:1034E000F0B51FB488B00B99099800244840099999
:1034F000C00F490049080991C0070B990090490085
:1035000049080B9109990898A64608431CD00B99C5
:103510000A98084318D0099801244000420D480039
:10352000410D099824050003000B204309900B98D6
:103530000003000B20430B9050181C494018002238
:1035400001901446104605E0002001460DB0F0BD84
:10355000032801DA034600E003239C46C11A0AAEA1
:103560000AE05F0008ADED5B4F00F75B7D4300278D
:10357000AA187C41491C5B1E6145F2DD410004AB89
:103580005A522104120C0A43240C401C0828DFDB89
:10359000019802900099704601910090059B049A51
:1035A0000799069800F02BF9D0E700000DFCFFFF0B
:1035B0004A0009030123090B1B0519430A4B10B5E7
:1035C000520D9A4202DA0020014610BD064B3433F8
:1035D0009A4203DC9A1A00F0E1F810BD034BD218AE
:1035E00000F0CCF810BD0000FF030000CDFBFFFF92
:1035F00010B500F007FD10BD7047704700000000D7
:103600005A4B2E41707000000000000000000000C6
:10361000000000000000566572312E302E34004448
:10362000656320323420323031390031313A32355D
:103630003A3239005A4B0000000000000000000040
:10364000F0B50C465C4085B0E40FE40703944C00F1
:10365000002664085900944649080246029622430F
:1036600021D062460A431ED06200570D4A000E0365
:103670002303550D012402462C492405781B1B0BFE
:10368000360B401823432643614600901C46501ACF
:10369000B44103D30098401C009002E092180098B7
:1036A0005B41002803DA0020014605B0F0BD002090
:1036B000012109050746864611E064461D46141B94
:1036C000B54106D36546521BB341744607430C43CC
:1036D000A646CD0740084908284392185B41054695
:1036E0000D43EAD11046184313D0604619465040A6
:1036F0007140084306D06046101AB34106D2012239
:10370000002306E000220123DB0702E00122D2436E
:103710005310009874460105381C6141029C039DBA
:103720000019694100F05EF8BFE70000FD030000EA
:1037300010B5002904DB0124E40740428C412146F6
:10374000002B04DB1C460123DB075242A3419942B4
:1037500000D1904210BD0000064C0125064E05E048
:10376000E36807CC2B430C3C98471034B442F7D3A2
:10377000FFF7AAFC98510000B851000010B5202AAC
:1037800004DB0146203A9140002010BD91402023E7
:103790009C1A0346E3401943904010BD10B5202AFF
:1037A00004DB0846203AD040002110BD0B46D34030
:1037B000D0402024A21A91400843194610BD10B5EC
:1037C000202A06DBCB170846203A1041C1170B43CD
:1037D00006E00B461341D0402024A21A9140084332
:1037E000194610BD10B5002B08DA0024401C6141B9
:1037F00092185B411A4301D14008400010BDF0B55A
:103800001FB482B005460C0003D0084600F0D0FE7D
:1038100002E000F0CDFE203002460090214628460E
:10382000FFF7ACFF049B059A04460F46184311436B
:10383000084314D0184610431BD0009840210A1AA0
:1038400018460599FFF7AAFF05460E46009A059906
:103850000498FFF793FF084305D0012004E02046B9
:10386000394607B0F0BD0020C11705430E432C4375
:10387000374300990E986305401A7905E40A00223F
:103880000C43FD0A0A3002D500200146E9E7010594
:10389000101969410C9C0D9D00196941FFF7A2FFA9
:1038A000DFE7000010B5064A926890B2054A127828
:1038B0009200054B9958884700200449087010BDB4
:1038C00040B003400DFCFF1F3CFCFF1F0EFCFF1F20
:1038D00070B505460C46034805600348046000685F
:1038E000804770BD34FCFF1F38FCFF1F114A106871
:1038F000104A403251690F4A126820231A430D4B77
:103900001A600C4A4032526980231A43094B4033F3
:103910005A6100BF074A403A126880231A40802A41
:10392000F8D1044A9268034A40325161014A10605A
:103930007047000040B0034002460D2A01DD01201F
:1039400070479000054B1858002801D00120F7E778
:103950009000024B19500020F2E700003CFCFF1FD2
:1039600010B50020244908702449087024482249D1
:1039700009788900234A5050012404E00020A10066
:10398000204A5050641C0E2CF8D303213B2000F039
:10399000FBFA1D4800686F21884304460420044355
:1039A000194804604068040A24020C2004431648A5
:1039B000446015484030006943218843044600BFF5
:1039C0001148403004614069040924010720044380
:1039D0000D4840304461FFF789FF0F20002805DBC8
:1039E000C206D20E01219140084A116000BF032196
:1039F0000F2000F07BFE10BD0DFCFF1F0EFCFF1F13
:103A0000F93500003CFCFF1F40B0034000E100E03E
:103A100010B50E2805DA002803D00C4B1B78012BBB
:103A200000D110BD431EDAB2094B1870094B1B6858
:103A30005F24A3431946D306DB0E40331943054BDD
:103A400019600123014C237000BFEAE70EFCFF1F41
:103A50000DFCFF1F00B003400148007870470000D4
:103A60000EFCFF1F70200849087008468078800708
:103A7000800F022803D101200449087002E00020D1
:103A80000249087070470000000002400CFCFF1F54
:103A900030B503460C46064D281F84601802000A04
:103AA000032149060843291F486000F02BF930BD67
:103AB00004000240014800687047000008FCFF1F36
:103AC000F8B505460E4617462C461748844203D1E2
:103AD000492000F04BFA1AE01448844203D14A20EE
:103AE00000F044FA13E01248844203D14B2000F066
:103AF0003DFA0CE00F48844203D14C2000F036FA26
:103B000005E00D48844202D14D2000F02FFAB000AC
:103B10002058072109028843390207221202114066
:103B20000843B1006050F8BD0090044000A004407C
:103B300000B0044000C0044000D00440044A1168B2
:103B400000E000BF024A1268521A8242F9D370475D
:103B500008FCFF1F10B5402000F008FA00201449AF
:103B600008600846406805210843114948608020E4
:103B7000886008460068402108430D490860032119
:103B80001D2000F03BFD1D20002805DBC206D20EE3
:103B900001219140074A116000BF054800680121DA
:103BA00008430349086000200349086010BD000075
:103BB0000000044000E100E008FCFF1F00BF0549D1
:103BC00049690122D20511400029F8D00149C86194
:103BD0007047000000B0064010B54B2000F0C6F959
:103BE000022206212A48FFF76BFF022207212848FC
:103BF000FFF766FF03216B2000F0C6F925488068B7
:103C000002210843234988600846806802218843CE
:103C1000204988604B21C9011E4801F044FA1D4823
:103C200080691D49084004460121C9022046884395
:103C3000044618488461194C890420468843044688
:103C400014484069204313494861084680690B21A4
:103C5000890408430F498861084680691021084398
:103C60000C49886108468069022108430949886136
:103C700002210D2000F0FEFC0D20002805DBC2060D
:103C8000D20E01219140064A116000BF10BD000014
:103C900000B0044000B00640E8F8FFFF00001F40FD
:103CA00000E100E0014802494860704702A680B484
:103CB0000020054072B61049104A516000BF0F49FC
:103CC00009680122D20211400029F8D00C490B4AA0
:103CD0009160C10180221140FF3121319201891888
:103CE000064A116000BF054909680122920211408D
:103CF0000029F8D062B6704720C528D900200540B9
:103D0000FFFF000014480078002800D170477020A1
:103D1000124A107072B68020104A107000BF0F480F
:103D20000078802210400028F9D062B60B48017854
:103D300020200840002801D00020E7E7102008409C
:103D4000002801D00020E1E7C807C00F002801D0FB
:103D50000020DBE70120D9E70CFCFF1F0000024038
:103D6000014908807047000022FCFF1F01480068DD
:103D70007047000028FCFF1F10B572B6FFF7EAFE7F
:103D8000FFF770FE04490548FFF7A2FD00F0B4FA02
:103D9000FFF7E6FD10BD0000D93B0000BD3B000071
:103DA00010B50349C969C8B200F0C2FA10BD0000DD
:103DB00000B0064070B563480479E007C00F0028E2
:103DC0002AD140202040002825D03020204004095E
:103DD0005D4800684069002806D0002C04D05A488D
:103DE0000068416920468847564800790C21084000
:103DF0008408554800688069002806D0002C04D04B
:103E0000514800688169204688474E480079402122
:103E100008434C49087170BD4A482030007B0507B3
:103E20002D0F4848203044784748006800694560B5
:103E300008202040002845D04348006800694068B9
:103E40000121C907084340490968096948603D489C
:103E5000203000783C490968096908603A480068E0
:103E60000069008840053849096809690860A010A0
:103E7000382108406107490F0843C00332490968E7
:103E800009690968084330490968096908602E48CA
:103E90000068006900682B4920318978C90108430E
:103EA00029490968096908602748006800690068AD
:103EB00024492031C9784910084323490968096910
:103EC00008601AE01F48203000781F490968096916
:103ED00008601D48006800690068C0001A49096848
:103EE0000969086018480068006900682106490FE0
:103EF00008431549096809690860002409E0114868
:103F00002430015D10480068006908300155601CCC
:103F1000C4B2AC42F3DB0B480079012108430949E4
:103F200008710121084800682030017006480068C7
:103F3000C069002803D004490968C869804700BFE8
:103F400069E700000040024010FCFF1F05480068C0
:103F5000802108430349086003480068401C024967
:103F6000086070470000044008FCFF1F8100054AFC
:103F700089180968920411438200024BD21811601B
:103F8000704700000050064030B50A4683000D4CD3
:103F90001B191968072424060B46A343140607259A
:103FA0002D062C40234319460124A4070B46A343A6
:103FB0008400044D64192360AB040B43840064192E
:103FC000236030BD0050064010B500220121084892
:103FD000FFF776FD07490220FFF7AEFC0020C04343
:103FE000054908800020054908700549086010BD92
:103FF00000900440613D000022FCFF1F20FCFF1FD9
:1040000028FCFF1FF8B50025FFF754FD2549096876
:10401000401A6E2800D2F8BDFFF71EFD002800D020
:10402000F9E7FFF747FD1F4908601F4800881F494F
:1040300088422ED01C4801881D4802780078401C18
:104040001B4B187050001B4A1152184600780A2862
:104050001FDB002019460870002405E060001549A8
:10406000085A4519601CC4B20A2CF7DB0A212846FD
:10407000FFF766F80746FFF7F4F806468B21C905F7
:104080003046FFF7B0F807460B49FFF76FF80B49CA
:1040900008600020C043044908800220FFF7B8FCF4
:1040A00000BFB8E724FCFF1F22FCFF1FFFFF00003A
:1040B00020FCFF1FB4FEFF1F0000D24228FCFF1FA0
:1040C00010B5FFF781FFFFF7F5FC0149086010BD4F
:1040D00000FCFF1F70B5FFF7EDFC0C490968401AA2
:1040E0007D21C900884200D270BDFFF7E3FC07497B
:1040F0000860FFF73BFE0646FFF7BAF80446224683
:104100000B4603A000F044FA00BFEDE700FCFF1FE0
:104110004E6F772069732072756E6E696E67206CC2
:104120006966742068616E646C652C73797374655C
:104130006D20706F7765723A25302E3166560D0A04
:1041400000000000F0B503460C46154603E0267853
:104150001E70641C5B1C2E466D1E002EF7D1F0BD38
:1041600070B504460D4600260A480068002800D1B4
:1041700070BD062C00DBFBE7204600F00DF806467C
:10418000324604480168891C2846FFF7DBFF00BF60
:10419000EEE7000014FCFF1F00B5014600200B00F5
:1041A00000F01DFA060406080A0C0E1001200AE0B1
:1041B000402008E0422006E0422004E0452002E0E2
:1041C000452000E000BF00BF00BD000070B5002525
:1041D0001A4800781A490978884201D1002070BD38
:1041E00016480478174A115D90226243164BD01886
:1041F00000F040F90546E91E90226243124BD218A6
:10420000501C00F0B7F9902161430F4A8A18A91E8B
:10421000515C884201D0002603E0902060430A49A7
:10422000461806480078401C044908700846007883
:10423000022801DB002008703046D0E71CFCFF1F7D
:104240001AFCFF1F18FCFF1F94FDFF1F10B592B052
:1042500000F0F8F80446042C01D012B010BD6946F5
:104260002046FFF77DFF68460078012800D0F4E77C
:104270006946052000F030F9104901204003FFF79E
:1042800007FCFF20F530FFF759FC72B600BF00BFF6
:1042900000BF00BF00BFBFF34F8F00BF00BF00BF14
:1042A00007480849C86000BF00BF00BFBFF34F8F79
:1042B00000BF00BF00BF00BF00BFFDE75A5A5A5AF7
:1042C0000400FA0500ED00E030B502460B460BE0B5
:1042D00000BF084C64690125ED052C40002CF8D086
:1042E0001478044DEC61521C1C465B1E002CEFD16F
:1042F00030BD000000B0064010B500F007F8002007
:104300000149086010BD000014FCFF1F0020044993
:10431000087004490870044908700449087070471F
:104320001DFCFF1F1CFCFF1F1AFCFF1F1BFCFF1FB7
:1043300010B5802813D10121274A11700021274A86
:1043400011702749097890225143264A8A18234937
:104350000B780978491C214C2170D05439E0812810
:1043600021D11F490978902251431E4A8A181B49BE
:104370000B780978491C194C2170D05421460978D2
:10438000194A174B1B78D15415490978491C144A0E
:10439000117011460978022901DB002111700021FA
:1043A0000D4A117015E00C490978012900D010BDA3
:1043B0000A49097890290CDA094909789022514371
:1043C000084A8A1805490B780978491C034C217062
:1043D000D05400BFEBE700001DFCFF1F1BFCFF1FBC
:1043E0001AFCFF1F94FDFF1F18FCFF1FF8B50646BF
:1043F0000F46154600200090114C80202070641C50
:104400002770641C2A4631462046FFF79BFE64193C
:10441000691C0B48401C00F0ADF82070641C812022
:104420002070641C0648211A0246903200F066F89B
:104430000090034890300099FFF746FFF8BD000058
:1044400074FCFF1F10B5FFF7C1FE0949086008465C
:104450000068002801D1062010BD0548006840789A
:10446000062801DB0620F7E7014800684078F3E7FB
:1044700014FCFF1FF0B503460D46AE1E02200024BB
:1044800019461A4617780F70521C491C1FE01778FE
:104490001B2F16D15778E72F03D180270F70491CA7
:1044A0000CE05778E82F03D181270F70491C05E0F5
:1044B0005778002F02D11B270F70491C921CA41C97
:1044C00004E017780F70521C491C641C401CB44255
:1044D000DDD317780F70F0BD70B504460D46002689
:1044E000062C00DB70BD2046FFF756FEC6B23246F2
:1044F00021462846FFF77AFF00BFF3E7F8B50346E9
:104500000D461446AF1E00970220002621461A468B
:1045100017780F70521C491C26E01778802F07D19E
:104520001B270F70491CE7270F70491C801C18E0DF
:104530001778812F07D11B270F70491CE8270F70B0
:10454000491C801C0DE017781B2F06D10F70491CE9
:1045500000270F70491C801C03E017780F70491C5E
:10456000401C521C771CFEB2009FBE42D5D3177868
:104570000F70F8BD10B502460B460024002102E082
:10458000505C4440491C9942FAD36006400E10BD6D
:104590000FB410B503A9044B044A029800F0AAF91D
:1045A00010BC08BC04B018472D5000002CFCFF1FA5
:1045B0002021020C01D010211046020A01D0104621
:1045C0000839020901D01046091F820801D010469F
:1045D000891E420801D0881E7047081A704730B4FF
:1045E0007446641E2578641CAB4204D3635D5B0093
:1045F000E31830BC18471D46F8E7000010B5002846
:1046000019DB1A4A03231B02D21883089B00D258D5
:104610008307DC0EFF23A3409A438B071B0E8407FE
:10462000E40EA3401A43114B032424021B198408EF
:10463000A4001A5118E00E4A03071B0F083B9B0801
:104640009B00D2588307DC0EFF23A3409A438B07BD
:104650001B0E8407E40EA3401A43054B0407240FE6
:10466000083CA408A4001A5110BD000000E100E0BD
:104670001CED00E010B5002819DB1A4A03231B02C9
:10468000D21883089B00D2588307DC0EFF23A34077
:104690009A438B071B0E8407E40EA3401A43114B69
:1046A000032424021B198408A4001A5118E00E4A9E
:1046B00003071B0F083B9B089B00D2588307DC0EA7
:1046C000FF23A3409A438B071B0E8407E40EA340ED
:1046D0001A43054B0407240F083CA408A4001A51F0
:1046E00010BD000000E100E01CED00E010B5002866
:1046F00019DB1A4A03231B02D21883089B00D258E5
:104700008307DC0EFF23A3409A438B071B0E84070D
:10471000E40EA3401A43114B032424021B198408FE
:10472000A4001A5118E00E4A03071B0F083B9B0810
:104730009B00D2588307DC0EFF23A3409A438B07CC
:104740001B0E8407E40EA3401A43054B0407240FF5
:10475000083CA408A4001A5110BD000000E100E0CC
:104760001CED00E002E008C8121F08C1002AFAD1BF
:104770007047002001E001C1121F002AFBD17047E1
:10478000F0B51FB486B00998089A030D00210243C2
:1047900014D05148514A1818504305141198012853
:1047A00010981AD0281A401C00264D4F4D490096EB
:1047B00001910490002812DA444211E0119801247A
:1047C00049A3012801D11098C1430698119A846029
:1047D0000360C26041600BB0F0BD4042E4E70446B4
:1047E000210500203F4A001C51410391029012E034
:1047F000E00707D032463B4601990098FEF770FE6D
:104800000191009032463B4610461946FEF768FE7D
:1048100006460F466410002CEAD10498039B00283A
:10482000029A0999089806DAFEF75AFE019B009A47
:10483000FEF756FE05E0FEF703FF019B009AFEF728
:10484000FFFE04460E460022284BFEF771FF03D8F8
:104850000020C043014607E00022254B2046314698
:10486000FEF78CFDFEF7A4FE102409E0002C0ADB05
:104870000A220023FEF710FD079B30321A55641EF2
:1048800002460A43F2D11122641C079B121B1C1919
:10489000119B012B03D0012308430ED10AE00843EA
:1048A00004D0112010900020119077E71098151A6D
:1048B0006D1E0BE01098824202DD00236D1C03E0A8
:1048C000824201DA00236D1E002BEED0069811996A
:1048D0008260C16030C07EE701FCFFFF104D000028
:1048E000000014400000F03F300000000000F043E2
:1048F0000000E03FFFB597B00646002518E22528E6
:1049000077D100242746FD49049400E00443761C37
:1049100032780120203A90400842F7D130782A2896
:104920000ED00222307801463039092916D8049970
:104930000A235943303940181443761C0490F1E798
:10494000189802C804911890002904DA0120400345
:1049500004434842049002200443761C30782E28F9
:1049600014D1042004437078761C2A2809D11898A1
:10497000761C80C8189009E00A214F43303FC719C0
:10498000761C3078014630390929F5D930786C2801
:1049900010D006DC4C281AD068280ED06A2817D10F
:1049A00004E0742813D07A2812D110E001204005C9
:1049B00004430CE00121090501E0032109050C4332
:1049C0007178814203D1012000052418761C761CE1
:1049D0003078119066280BD013DC58287DD009DC84
:1049E00000287BD04528F6D04628F4D047281AD195
:1049F000A5E118E0632835D0642870D0652812D16D
:104A00009DE170286CD008DC6728F1D069287BD044
:104A10006E280DD06F2806D1BAE073282ED07528E5
:104A200071D0782859D01A9A199990476D1C7EE157
:104A30006002400F022809D003280DD004281898DE
:104A400001680DD00D60001D189070E11898EA17EC
:104A500001680D604A60F6E7189801680D80F2E77A
:104A60000D70F0E718986A4601781172001D1890D1
:104A70000020507202A80090012005E0189802C89A
:104A8000189000200091C04361070DD5002101E07E
:104A90000199491C0191B94212DA8142F8DB009A6E
:104AA000515C0029F4D10BE0002101E00199491C7F
:104AB00001918142FADB019A0099895C0029F5D1C4
:104AC000019904981A9B471A21463846199A00F012
:104AD00097FA0199401945180BE04FE02CE113E0DB
:104AE0004EE0009800990078491C00911A9A199993
:104AF00090470198401E0190401CF2D12146384653
:104B00001A9B199A10E137E00A20002100900191C8
:104B10006002410F022907D0189A01CA1892C217E1
:104B20009446032908D00AE01898C01DC108C9009E
:104B300005C91891944607E000B2C21794460429AB
:104B400002D140B2C1178C4600226146944506DA74
:104B50000A460021404291418C462D2102E0210568
:104B600004D52B216A461173012103E0E10701D02E
:104B70002021F7E7029155E00A200AE0102008E022
:104B8000102000900021042004430191082703E035
:104B900008200021019100906002410F022907D0F6
:104BA000189A01CA189200229446032908D008E0F6
:104BB0001898C01DC108C90005C91891944603E0A2
:104BC00080B2042900D1C0B200210291210729D569
:104BD0001199702906D0009A1021019B4A401A436E
:104BE00005D00EE040216A461173012108E06146BC
:104BF000014306D030216A46117311995173022185
:104C00000291009A0821019B4A401A430AD1614649
:104C1000014301D1610705D530216A461173012195
:104C20007F1E02911199582904D035A10E910DA92A
:104C30000D910DE037A1F9E76146019B009AFEF75F
:104C40002BFB0E9B8C469B5C0D9A521E0D92137093
:104C500061460143F0D10D9805A9081A2030019052
:104C6000600703D501200004844300E00127019878
:104C7000874201DD381A00E00020019900904118B8
:104C8000029809180498401A0490E00306D42146BB
:104C90001A9B199A049800F0B3F94519002706E009
:104CA00003A81A9AC05D199990476D1C7F1C029841
:104CB0008742F5DBE0030CD521461A9B199A04982C
:104CC00000F09EF9451904E01A9A3020199990478E
:104CD0006D1C0099481E00900029F5DC08E00D9835
:104CE0000D990078491C0D911A9A199990476D1CDD
:104CF0000199481E01900029F1DC63E109280100B7
:104D00003031323334353637383961626364656641
:104D10000000000030313233343536373839414203
:104D2000434445460000000000F05AF94519761C3E
:104D30003078002800D0E2E528461BB0F0BD6007BF
:104D400000D406271898C01DC108C90048680A6821
:104D50000831C30FDB071891190001D09CA108E0AE
:104D6000210501D59BA104E0E10701D09AA100E053
:104D70009AA1430011985B08109165280CD006DCBD
:104D8000452809D046281DD0472841D141E0662852
:104D900018D067283CD13CE00021112F01DB112005
:104DA00000E0781C0191009008A911A8FFF7E8FC29
:104DB000139905910021119A15927F1C1298019761
:104DC000009150E00120C00703900120019008A944
:104DD000009711A8FFF7D4FC139A149905920022AA
:104DE000119B009212981593059A0192002901D007
:104DF000104602E0791C40180190381A01D501983C
:104E000004E04042401E0090781C0190C01B0290BC
:104E100043E0012F00DA01270021112F01DD1120CD
:104E200000E038460191009008A911A8FFF7A8FCFE
:104E300013990591119A00211298159200910197EA
:104E400021070CD40599B94201DB019900E00191D9
:104E5000012904DD159A491E515C302906D0B8425B
:104E600001DA011D05DA0121029115E00199491EBF
:104E7000EDE7002805DC0099411800910199091A15
:104E800003E0019A411C914200DD01910099401A12
:104E9000401C02900120C0070390200706D402990D
:104EA0000198814202DB0020C04302900020694645
:104EB000C87707AF012103980337C907884224D078
:104EC000022011902B201290039800280CDA404207
:104ED00003902D20129007E00A210398FEF730F985
:104EE00030317F1E039039701199481E11900029AE
:104EF000F2DC03980028EFD1791E12980870307800
:104F0000202108404530BF1E387006A8C01BC01DB8
:104F1000039010980078002800D0012001994118D2
:104F20000298C0170918039809180498401A401EDF
:104F30000490E00306D421461A9B199A049800F0C5
:104F40005FF8451910980078002803D01A9A19992B
:104F500090476D1CE00324D521461A9B199A0498AA
:104F600000F04EF845191CE00098002807DB009976
:104F70000598884203DD1598405C199901E019995C
:104F800030201A9A904700986D1C401C009002989F
:104F9000401E0290002804D11A9A2E201999904799
:104FA0006D1C0199481E01900029DDDC05E0387870
:104FB0001A9A7F1C199990476D1C0399481E0390FB
:104FC0000029F4DC21461A9B199A0498ACE60000EB
:104FD0002D0000002B000000200000000000000059
:104FE000F8B5044600251E461746880404D405E09B
:104FF00039462020B0476D1C641EF9D52846F8BDFF
:10500000FFB50446002581B01E46C80301D53027F0
:1050100000E02027880404D505E038460399B0470E
:105020006D1C641EF9D5284605B0F0BD70B5044668
:105030000D46E0B2024909688847204670BD00006D
:1050400034FCFF1F1CB50BA103C9019100900B4854
:105050004068072109020840040A002C01D1002001
:105060001CBD601E6A46115C05480068FEF768F8C2
:10507000F6E700000102040810204000004306404B
:1050800004FCFF1FFEF778FEFFF71AF80120FEF779
:1050900011FE07E0FFF7DAF8FFF71CF8FEF7A8FAB1
:1050A000FEF700FEF6E7F3B587B00D4607980469F2
:1050B000002006900026059004900390FFF7C2FFA1
:1050C00002900395002006900190042630E02846C7
:1050D000704301460298FEF733F887B2002F00D1E3
:1050E00001273846704301460298FEF729F80590DB
:1050F0000598401B0490781C704301460298FEF707
:105100001FF8291A0498814209D2781C704301467D
:105110000298FEF715F8281A0490781C87B20399B4
:105120000498884203D80498039006960197761C49
:10513000202ECCD964212846FEF702F84100411800
:105140000398814202D2012009B0F0BD06980328DD
:1051500005D90698082802D20120400404431F21E3
:1051600009062046884304460698401E000608406B
:105170000443640B64030198C004C00C0443012180
:1051800049072046884304460914204688430446BC
:10519000079804610020D7E7B851000000FCFF1F0A
:1051A0003C00000064470000F45100003CFCFF1F7D
:1051B0008C0200007247000000000000006CDC025E
:1051C00000000000000000000000000000000000DF
:1051D00000000000000000000000FFFF00000000D1
:1051E00000000000000000000000000000000000BF
:0451F00000000000BB
:04000005000030C106
:00000001FF
