:020000040000FA
:10000000000C0020250400003D0400003F04000017
:1000100000000000000000000000000000000000E0
:10002000000000000000000000000000410400008B
:100030000000000000000000430400004504000030
:100040006304000063040000630400006304000014
:100050006304000063040000630400006304000004
:1000600047040000630400004B0400006304000028
:100070004F0400009D0D00005704000063040000C1
:1000800063040000630400006304000063040000D4
:1000900063040000630400006304000063040000C4
:1000A00063040000630400006304000063040000B4
:1000B00063040000B10D00005B0400005F04000059
:1000C0000000000000000000000000000000000030
:1000D0000000000000000000000000000000000020
:1000E0000000000000000000000000000000000010
:1000F0000000000000000000000000000000000000
:10040000FFFFFFFFFFFFFFFFFFFFFFFFFEFBFFFF01
:100410000348854600F056F80048004723150000C1
:10042000000C002072B61048104901600A6882F37F
:1004300008880F48804762B60E480047FEE7FEE78F
:10044000FEE7FEE7FEE70C4800470C4800470C4873
:1004500000470C4800470C4800470C4800470B4831
:1004600000470C480047000008ED00E000000000D5
:100470002D0F00001104000063040000630400005D
:1004800063040000630400006304000063040000D0
:10049000000000006304000030B50B460146002058
:1004A0002022012409E00D46D5409D4205D31D467A
:1004B0009540491B2546954040191546521E002D72
:1004C000F1DC30BD064C0125064E05E0E36807CCA3
:1004D0002B430C3C98471034B442F7D3FFF79CFFF2
:1004E000281600004816000000B591B069460220A9
:1004F00000F0A8FD68464078012820D168460078C1
:10050000402818DA68460078002809D12948007880
:10051000002805D00C22284900A8023000F084FDF4
:1005200069460978890101225203881800A902311D
:1005300000F04CFA38E0FD206946487034E0684627
:100540004078022813D16846007840280BDA6846C4
:1005500000788001012252038118402200A8023055
:1005600000F062FD20E0FE20694648701CE068460D
:100570004078032815D10C22012149030E4800F0D0
:1005800053FD01200B490870082000F023F80920D2
:1005900000F020F80A2000F01DF80B2000F01AF8F7
:1005A00002E0FF20694648706946032000F0C8FE5B
:1005B00011B000BD08FCFF1F3400002010B50C2452
:1005C00004E0204600F006F8601CC4B2202CF8DBE2
:1005D00010BD000030B50346084D9C02202B00DB07
:1005E00030BD2002000A0921090608430349091FFA
:1005F000486000F08BFB00BFF2E7000004000240FF
:100600005A4B2E424F4F54000000000000000000E3
:10061000000000000000566572312E302E3100417E
:10062000756720323820323031390031363A323570
:100630003A3234005A4B0000000000000000000075
:1006400000B593B001A9042000F0FCFC68460079D5
:10065000012802D1A149087015E1684600790228F5
:100660002AD19E4800780228F6D002209B490870C3
:10067000C01E9B4908606946487989790902084388
:100680006946C979090408436946097A0906084395
:10069000934988606946487A897A0902084369461D
:1006A000C97A090408436946097B090608438C494D
:1006B0004860FFF783FFE6E068460079032833D1FE
:1006C0008649087010A9087A0006C9790904084308
:1006D00010A989790902084310A949790843814979
:1006E00008600846006880490968884218D07D483B
:1006F00000687D4908607B480068FF2141318842DD
:100700000AD278490968890103221203881801A9CD
:10071000013100F05BF9B6E0FD2069460871B2E0F6
:10072000FE2069460871AEE06846007904280DD1C4
:100730006A48007804288FD0042068490870684B04
:100740005A689968186800F0BFFA9CE0684600791A
:10075000052802D16149087095E0684600790628AD
:1007600047D1694648798979090208436946C979B8
:10077000090408436946097A090608435B49086089
:10078000084600685A49096888422ED057480068D0
:100790005749086055480068FF214131884220D2FE
:1007A000524800688001032212038118402201A8E8
:1007B000013000F039FC4D48017810A841714B48D8
:1007C00000880004010E10A88171484800680002EA
:1007D000010E10A8C17145480068000E10A90872EA
:1007E00051E0FB20694608714DE0FC206946087124
:1007F00049E068460079072842D1694648798979F5
:10080000090208436946C979090408436946097A17
:1008100009060843354908600846006834490968F4
:10082000884229D031480068314908602F48006863
:1008300080281DD22D4800688101402201A8013086
:1008400000F0F2FB2948017810A841712748008880
:100850000004010E10A88171244800680002010EF6
:1008600010A8C17121480068000E10A908720AE0A2
:10087000F9206946087106E0FA206946087102E02D
:10088000FF206946087101A9052000F059FD1348B1
:10089000007805281FD1322000F0E2F801A90520D8
:1008A00000F04EFD72B600BF00BF00BF00BF00BF2A
:1008B000BFF34F8F00BF00BF00BF0E480E49C86096
:1008C00000BF00BF00BFBFF34F8F00BF00BF00BF1E
:1008D00000BF00BFFDE713B000BD00001CFCFF1F00
:1008E000400000200CFCFF1F10FCFF1F14FCFF1F2A
:1008F00018FCFF1F0400FA0500ED00E010B500F041
:1009000041F800F0D3FC0446062C00D110BD0020B5
:1009100007490870022C02DA00F088FA06E0042C7D
:1009200002DAFFF7E1FD01E0FFF78AFE00BFEDE725
:1009300000FCFF1F0EB50C2201214903684600F0A0
:1009400073FB00200D4908700199029800F0A4F98A
:10095000002803D00120094908700EBD08490098FD
:10096000884206D10020C043019A029900F0ACF9F8
:10097000F3E700F0F9F900BFEFE7000000FCFF1F0C
:100980005A5A5A5A00B593B00D480078002801D140
:1009900013B000BD00F04EF80A490968401A0A4930
:1009A000884200D2F4E700F045F8064908600120CB
:1009B0006946087101A9052000F0C2FC00BFE7E705
:1009C00000FCFF1F04FCFF1FB80B0000F0B507463A
:1009D0000C46002618E0257860780002FF21090205
:1009E00008400543A0780004090208400543E07868
:1009F0000006000E00060543B100C819294600F0A4
:100A000007F8241D701CC6B2102EE4DBF0BD0000F8
:100A100030B503460C46064D281F84601802000AB4
:100A2000032149060843291F486000F06FF930BDD3
:100A300004000240014800687047000020FCFF1FCE
:100A400070B503468C001C5907252D02AC431502D6
:100A50000726360235402C438D005C5170BD0000E6
:100A6000044A116800E000BF024A1268521A82422A
:100A7000F9D3704720FCFF1F1D20002815DBC2069C
:100A8000D20E01219140114A116000BF00BF00BF8A
:100A9000BFF34F8F00BF00BF00BF00BF00BF00BF4C
:100AA000BFF36F8F00BF00BF00BF00BF08480068E2
:100AB000400840000649086006480068090388436A
:100AC00004490860084600680860704780E100E05B
:100AD000000004400051064010B5402000F078F9B5
:100AE0000020144908600846406805210843114960
:100AF00048608020886008460068402108430D490E
:100B0000086001211D2000F085FC1D20002805DB68
:100B1000C206D20E01219140074A116000BF05486C
:100B20000068012108430349086000200349086068
:100B300010BD00000000044000E100E020FCFF1FA9
:100B400010B51E49C96A01239B071940002900D12D
:100B500010BD1B4800BF416901239B0519400029B6
:100B6000F9D0184A41691143416100218161022194
:100B70008160002181600D21002915DBCC06E40E87
:100B80000123A340104C236000BF00BF00BFBFF390
:100B90004F8F00BF00BF00BF00BF00BF00BFBFF34B
:100BA0006F8F00BF00BF00BF00BF0449C96A0123A7
:100BB0009B079943014BD96200BFC9E780510640AA
:100BC00000B0064000001F4080E100E010B54B205F
:100BD00000F0FEF8022206212A48FFF731FF022228
:100BE00007212848FFF72CFF03216B2000F0FEF8B7
:100BF00025488068022108432349886008468068A8
:100C000002218843204988604B21C9011E4800F019
:100C100091FC1D4880691D49084004460121C90214
:100C200020468843044618488461194C89042046AC
:100C300088430446144840692043134948610846E4
:100C400080690B21890408430F498861084680693F
:100C5000102108430C498861084680690221084335
:100C60000949886100210D2000F010FC0D200028AA
:100C700005DBC206D20E01219140064A116000BF79
:100C800010BD000000B0044000B00640E8F8FFFFCF
:100C900000001F4000E100E070B504460D4605204D
:100CA0000003844202D8681C002801D1012070BDD5
:100CB00021460320000300F097F90646B54201D013
:100CC0000120F4E70020F2E7F8B505460E46174686
:100CD00001229202D1000C4800F0A6F90820FFF78B
:100CE00079FC0948056047608660002409E0A2009D
:100CF000054B9958A20001235B03D018FFF788FE2B
:100D0000641CFF2CF3D9F8BD34FCFF1F7020124A7D
:100D1000107072B68020104A107000BF0E48007824
:100D2000802210400028F9D062B60B4801782020BC
:100D30000840002801D000207047102008400028FB
:100D400001D00020F8E7C807C00F002801D000201C
:100D5000F2E70120F0E700000000024010B5FFF7C5
:100D6000BBFEFFF733FF10BD70B572B6FFF784FE10
:100D7000FFF7E6FE03200003074988600146086884
:100D800080F3088800BF086880F3098800BF084620
:100D900044682546A84770BD00ED00E010B5034942
:100DA000C969C8B200F0F8F910BD000000B00640F3
:100DB000054800688021084303490860034800682B
:100DC000401C0249086070470000044020FCFF1FDF
:100DD0008100054A89180968920411438200024B78
:100DE000D2181160704700000050064030B50A4626
:100DF00083000D4C1B191968072424060B46A343D6
:100E0000140607252D062C40234319460124A40768
:100E10000B46A3438400044D64192360AB040B43C9
:100E200084006419236030BD0050064008B569464F
:100E3000002000F007F968460078002805D11B2142
:100E40004902012000F07CFA04E00321490201205C
:100E500000F076FA08BD10B500F082F9FFF76AFDE0
:100E600062B610BD10B5184A1168012252060A4038
:100E7000002A00D010BD0122D2050A40002A00D06D
:100E8000F8E701229206104B1A6042785207520F7F
:100E900083781B020724240223401A430A4B5A601A
:100EA000C2789207920F9A601A46126801231A4379
:100EB000054B1A6000BF044A126801231B061A4042
:100EC000002AF8D000BFD5E700430640164909685C
:100ED000012252061140002900D0704712490968CA
:100EE0000122D2051140002900D0F6E700210E4A68
:100EF000116041784907490F8278120207231B02CB
:100F00001A401143084A5160C178C907C90F91605E
:100F10000121116000BF0449096801221206114035
:100F20000029F8D000BFD8E70042064008B527489E
:100F30002749486027488860084600688021884320
:100F4000202108432249086000216846417002219F
:100F500081700121C170FFF7B9FF1F481F49486127
:100F600000BF1E4800690F210906084001214906FB
:100F70008842F6D10121684681700021C1700121AB
:100F80004170FFF76FFF16481449486100BF1348CE
:100F900000690F2109060840032109068842F6D19D
:100FA00010480068012149060840002800D008BD0B
:100FB0000C4800680121C9050840002800D0F6E768
:100FC00000200849086000BFF1E7000020C528D9CB
:100FD00000200540FFFF0000030000020040064023
:100FE000030000030042064030B502460C4811E001
:100FF0001478521C604000230AE0C407E40F002C60
:1010000004D14408074D6C40204600E040085B1CBA
:10101000082BF2DB0C46491E002CE9D130BD000044
:101020001717000001A00000F0B503460C46154656
:1010300003E026781E70641C5B1C2E466D1E002E7D
:10104000F7D1F0BD70B504460D4600260A48006889
:10105000002800D170BD062C00DBFBE7204600F025
:101060000DF80646324604480168891C2846FFF7F9
:10107000DBFF00BFEEE7000024FCFF1F00B50146C8
:1010800000200B0000F0B8F9060406080A0C0E1048
:1010900001200AE0402008E0422006E0422004E06F
:1010A000452002E0452000E000BF00BF00BD000079
:1010B00070B500251A4800781A490978884201D18C
:1010C000002070BD16480478174A115D90226243D3
:1010D000164BD01800F002F90546E91E9022624333
:1010E000124BD218501C00F079F9902161430F4A3D
:1010F0008A18A91E515C884201D0002603E0902086
:1011000060430A49461806480078401C04490870A4
:1011100008460078082801DB002008703046D0E738
:1011200032FCFF1F30FCFF1F28FCFF1F6C0100205A
:1011300030B502460B460BE000BF084C6469012540
:10114000ED052C40002CF8D01478044DEC61521CB5
:101150001C465B1E002CEFD130BD000000B00640E5
:1011600010B500F007F800200149086010BD00002C
:1011700024FCFF1F0020044908700449087004493A
:10118000087004490870704733FCFF1F32FCFF1FD2
:1011900030FCFF1F31FCFF1F10B5802813D1012147
:1011A000274A11700021274A117027490978902297
:1011B0005143264A8A1823490B780978491C214C47
:1011C0002170D05439E0812821D11F49097890221B
:1011D00051431E4A8A181B490B780978491C194C3F
:1011E0002170D05421460978194A174B1B78D154E5
:1011F00015490978491C144A1170114609780829C3
:1012000001DB0021117000210D4A117015E00C491D
:101210000978012900D010BD0A49097890290CDA13
:101220000949097890225143084A8A1805490B78E0
:101230000978491C034C2170D05400BFEBE7000033
:1012400033FCFF1F31FCFF1F30FCFF1F6C0100202F
:1012500028FCFF1FF8B506460F46154600200090F3
:10126000114C80202070641C2770641C2A46314673
:101270002046FFF7D9FE6419691C0B48401C00F09A
:10128000ADF82070641C81202070641C0648211A6F
:101290000246903200F066F80090034890300099C2
:1012A000FFF746FFF8BD00004C00002010B5FFF727
:1012B000FFFE0949086008460068002801D10620A1
:1012C00010BD054800684078062801DB0620F7E7D6
:1012D000014800684078F3E724FCFF1FF0B503469F
:1012E0000D46AE1E0220002419461A4617780F70CC
:1012F000521C491C1FE017781B2F16D15778E72F77
:1013000003D180270F70491C0CE05778E82F03D1D8
:1013100081270F70491C05E05778002F02D11B2749
:101320000F70491C921CA41C04E017780F70521C0B
:10133000491C641C401CB442DDD317780F70F0BD0B
:1013400070B504460D460026062C00DB70BD204615
:10135000FFF794FEC6B2324621462846FFF77AFFD1
:1013600000BFF3E7F8B503460D461446AF1E0097DD
:101370000220002621461A4617780F70521C491C7D
:1013800026E01778802F07D11B270F70491CE7270D
:101390000F70491C801C18E01778812F07D11B277C
:1013A0000F70491CE8270F70491C801C0DE017784E
:1013B0001B2F06D10F70491C00270F70491C801C81
:1013C00003E017780F70491C401C521C771CFEB2BA
:1013D000009FBE42D5D317780F70F8BD10B50246F6
:1013E0000B460024002102E0505C4440491C994215
:1013F000FAD36006400E10BD30B47446641E2578E2
:10140000641CAB4204D3635D5B00E31830BC184737
:101410001D46F8E710B5002819DB1A4A03231B0202
:10142000D21883089B00D2588307DC0EFF23A34009
:101430009A438B071B0E8407E40EA3401A43114BFB
:10144000032424021B198408A4001A5118E00E4A30
:1014500003071B0F083B9B089B00D2588307DC0E39
:10146000FF23A3409A438B071B0E8407E40EA3407F
:101470001A43054B0407240F083CA408A4001A5182
:1014800010BD000000E100E01CED00E010B50028F8
:1014900019DB1A4A03231B02D21883089B00D25877
:1014A0008307DC0EFF23A3409A438B071B0E8407A0
:1014B000E40EA3401A43114B032424021B19840891
:1014C000A4001A5118E00E4A03071B0F083B9B08A3
:1014D0009B00D2588307DC0EFF23A3409A438B075F
:1014E0001B0E8407E40EA3401A43054B0407240F88
:1014F000083CA408A4001A5110BD000000E100E05F
:101500001CED00E002E008C8121F08C1002AFAD151
:1015100070477047002001E001C1121F002AFBD173
:101520007047FFF71BFCFFF796FC01E0FFF7E6F9B9
:10153000FCE70000F3B587B00D460798046900206A
:10154000069000260590049003903648029003957B
:10155000002006900190042630E0284670430146A2
:101560000298FEF799FF87B2002F00D10127384675
:10157000704301460298FEF78FFF05900598401BC7
:101580000490781C704301460298FEF785FF291AE3
:101590000498814209D2781C704301460298FEF7F4
:1015A0007BFF281A0490781C87B20399049888421C
:1015B00003D80498039006960197761C202ECCD968
:1015C00064212846FEF768FF4100411803988142D4
:1015D00002D2012009B0F0BD0698032805D906986B
:1015E000082802D20120400404431F210906204696
:1015F000884304460698401E000608400443640BD6
:1016000064030198C004C00C04430121490720462B
:101610008843044609142046884304460798046119
:101620000020D7E7006CDC024816000000FCFF1F1A
:1016300034000000041500007C16000034FCFF1F7D
:10164000B8090000141500000000000000000000B0
:101650000000000000000000FFFF0000000000008C
:10166000FFFF00000000000000000000000000007C
:0C1670000000000000000000000000006E
:0400000500000411E2
:00000001FF
